:040000008BEF26F06C
:08000800046ED8CF05F0E0CF33
:1000100006F00001E9CF0CF0EACF07F0E1CF08F0DD
:10002000E2CF09F0D9CF0AF0DACF0BF0F3CF12F01C
:10003000F4CF13F0FACF14F0F5CF15F0F6CF16F099
:10004000F7CF17F000C00EF001C00FF002C010F0A3
:1000500003C011F09DAA30EF00F09EBA5FEF09F0E7
:10006000A3AA36EF00F0A4BA99EF09F0F2AA3CEF88
:1000700000F0F2B443EF07F0F2A842EF00F0F2B262
:10008000C7EF06F09DA048EF00F09EB0D5EF05F059
:10009000A0A24EEF00F0A1B2B3EF06F09DAC54EF7A
:1000A00000F09EBCE5EF00F00EC000F00FC001F0C4
:1000B00010C002F011C003F00CC0E9FF07C0EAFF56
:1000C000078E08C0E1FF09C0E2FF0AC0D9FF0BC0DC
:1000D000DAFF12C0F3FF13C0F4FF14C0FAFF15C01B
:1000E000F5FF16C0F6FF17C0F7FF045006C0E0FF8B
:1000F00005C0D8FF10000D0A4B2D4A756E696F724E
:10010000207632204F7065726174696E6720537972
:100110007374656D0D0A00006B4A4F532025732DD3
:100120002530326420282573292C204B2D546561FD
:100130006D2053410D0A000042003531302E303021
:1001400035350000452D4D61696C203A20696E6699
:100150006F406B2D7465616D2E636F6D0D0A00002D
:100160000D0A4B2D4A756E696F72207632204F70E2
:1001700065726174696E672053797374656D0D0AD9
:1001800000006B4A4F532025732D25303264202800
:100190002573292C204B2D5465616D2053410D0A88
:1001A000000042003531302E303035350000452D0D
:1001B0004D61696C203A20696E666F406B2D7465E5
:1001C000616D2E636F6D0D0A0000F25323E1C2B220
:1001D000FED7C3CFFFF0C4CF00F1F22B036AF15179
:1001E000F30FE96E000E0320EA6EEFCFD4F10101A8
:1001F000D435006E0036FC0E0016C250830B001082
:10020000C26E000E016EC150F80B0110C16EF0EF0E
:1002100004F00001F22D57D0036AF151F30FE96E9B
:10022000000E0320EA6ED890EF34036A910FE96E56
:10023000000E0320EA6EC2B2FED7C3CFEFFFC4CFD9
:10024000ECFFF12BF15109081DE2F16B036AF1514A
:10025000F30FE96E000E0320EA6EEFCFD4F1010137
:10026000D435006E0036FC0E0016C250830B001011
:10027000C26E000E016EC150F80B0110C16E00017C
:10028000F22B20D0036AF151F30FE96E000E032028
:10029000EA6EEFCFD4F10101D435006E0036FC0ECA
:1002A0000016C250830B0010C26E000E016EC150CA
:1002B000F80B0110C16E020E006E002EFED700007A
:1002C000C28200018CD3F2510308D8A426D1036A5C
:1002D000F151F30FE96E000E0320EA6ED890EF346F
:1002E000036AD90FE96E000E0320EA6EC2B2FED790
:1002F000C3CFEFFFC4CFECFF036AF151F30FE96EF8
:10030000000E0320EA6ED890EF34036AD90F016E15
:10031000000E032201C0D4F1010103C0D5F1036A2C
:100320000001F151F30FE96E000E0320EA6ED89040
:10033000EF34036A910FE96E000E0320EA6EECCFF2
:10034000D7F1ED52EFCFD6F1036AF151F30FE96E19
:10035000000E0320EA6ED890EF34036AD90FE96EDD
:10036000000E0320EA6EECCF03F0ED52EF500101D6
:10037000D65F0350D75BD7C103F0D651D7AF08D0B3
:10038000000ED880D655006E000ED755036E005073
:10039000D5C1EAFFD4C1E9FF03C0ECFFED52EF6E17
:1003A000036A0001F151F30FE96E000E0320EA6EBB
:1003B000D890EF34036AD90FE96E000E0320EA6E7D
:1003C000ECCFD5F1ED52EFCFD4F1036AF151F30F39
:1003D000E96E000E0320EA6ED890EF34036AC10F75
:1003E000E96E000E0320EA6EECCF03F0ED52EFCF82
:1003F00001F00101D5AF03D003AE0AD002D003BE95
:100400001CD0D551035C19E303E10150D45D15E222
:10041000036A0001F151F30FE96E000E0320EA6E4A
:10042000D890EF34036AA90FE96E000E0320EA6E3C
:10043000EC6AED52EF6A49D00101036A0001F15103
:10044000F30FE96E000E0320EA6ED890EF34036AD2
:10045000A90F016E000E0322010103C0D5F1036A4A
:100460000001F151F30FE96E000E0320EA6ED890FF
:10047000EF34036AD90FE96E000E0320EA6EECCF69
:10048000D7F1ED52EFCFD6F1036AF151F30FE96ED8
:10049000000E0320EA6ED890EF34036AC10FE96EB4
:1004A000000E0320EA6EECCF03F0ED52EF50010195
:1004B000D65D006E0350D759D5C1EAFF01C0E9FFF0
:1004C000EC6EED5200C0EFFF0001F12B036AF15119
:1004D000F30FE96E000E0320EA6EEFCFD4F10101B5
:1004E000D435006E0036FC0E0016C250830B00108F
:1004F000C26E000E016EC150F80B0110C16E020EEB
:10050000006E002EFED700000001F151020803E248
:100510008C92F22B01D0C28262D2F2510508D8A48B
:1005200026D1036AF151F30FE96E000E0320EA6E43
:10053000D890EF34036AD90FE96E000E0320EA6EFB
:10054000C2B2FED7C3CFEFFFC4CFECFF036AF151B5
:10055000F30FE96E000E0320EA6ED890EF34036AC1
:10056000D90F016E000E032201C0D4F1010103C0B6
:10057000D5F1036A0001F151F30FE96E000E03207B
:10058000EA6ED890EF34036A910FE96E000E0320F3
:10059000EA6EECCFD7F1ED52EFCFD6F1036AF1510D
:1005A000F30FE96E000E0320EA6ED890EF34036A71
:1005B000D90FE96E000E0320EA6EECCF03F0ED5286
:1005C000EF500101D65F0350D75BD7C103F0D6517E
:1005D000D7AF08D0000ED880D655006E000ED75584
:1005E000036E0050D5C1EAFFD4C1E9FF03C0ECFFA0
:1005F000ED52EF6E036A0001F151F30FE96E000E48
:100600000320EA6ED890EF34036AD90FE96E000E2A
:100610000320EA6EECCFD5F1ED52EFCFD4F1036AAF
:10062000F151F30FE96E000E0320EA6ED890EF341B
:10063000036AC10FE96E000E0320EA6EECCF03F0EF
:10064000ED52EFCF01F00101D5AF03D003AE0AD0D8
:1006500002D003BE1CD0D551035C19E303E1015065
:10066000D45D15E2036A0001F151F30FE96E000E4B
:100670000320EA6ED890EF34036AA90FE96E000EEA
:100680000320EA6EEC6AED52EF6A49D00101036A79
:100690000001F151F30FE96E000E0320EA6ED890CD
:1006A000EF34036AA90F016E000E0322010103C09B
:1006B000D5F1036A0001F151F30FE96E000E03203A
:1006C000EA6ED890EF34036AD90FE96E000E03206A
:1006D000EA6EECCFD7F1ED52EFCFD6F1036AF151CC
:1006E000F30FE96E000E0320EA6ED890EF34036A30
:1006F000C10FE96E000E0320EA6EECCF03F0ED525D
:10070000EF500101D65D006E0350D759D5C1EAFF05
:1007100001C0E9FFEC6EED5200C0EFFF0001F12BCC
:10072000036AF151F30FE96E000E0320EA6EEFCF7A
:10073000D4F10101D435006E0036FC0E0016C25013
:10074000830B0010C26E000E016EC150F80B011039
:10075000C16E020E006E002EFED700000001F151A6
:10076000050803E28C94F22B01D0C28238D1F251F9
:100770000708D8A434D1036AF151F30FE96E000ED3
:100780000320EA6ED890EF34036AD90FE96E000EA9
:100790000320EA6EC2B2FED7C3CFEFFFC4CFECFF97
:1007A000036AF151F30FE96E000E0320EA6ED89050
:1007B000EF34036AD90F016E000E032201C0D4F199
:1007C000010103C0D5F1036A0001F151F30FE96E95
:1007D000000E0320EA6ED890EF34036A910FE96EA1
:1007E000000E0320EA6EECCFD7F1ED52EFCFD6F139
:1007F000036AF151F30FE96E000E0320EA6ED89000
:10080000EF34036AD90FE96E000E0320EA6EECCFD5
:1008100003F0ED52EF500101D65F0350D75BD7C113
:1008200003F0D651D7AF08D0000ED880D655006E51
:10083000000ED755036E0050D5C1EAFFD4C1E9FFC1
:1008400003C0ECFFED52EF6E036A0001F151F30FAC
:10085000E96E000E0320EA6ED890EF34036AD90FD8
:10086000E96E000E0320EA6EECCFD5F1ED52EFCF2A
:10087000D4F1036AF151F30FE96E000E0320EA6E22
:10088000D890EF34036AC10FE96E000E0320EA6EC0
:10089000ECCF03F0ED52EFCF01F00101D5AF03D063
:1008A00003AE0AD002D003BE1CD0D551035C19E3BD
:1008B00003E10150D45D15E2036A0001F151F30F29
:1008C000E96E000E0320EA6ED890EF34036AA90F98
:1008D000E96E000E0320EA6EEC6AED52EF6A49D031
:1008E0000101036A0001F151F30FE96E000E0320CC
:1008F000EA6ED890EF34036AA90F016E000E03224E
:10090000010103C0D5F1036A0001F151F30FE96E53
:10091000000E0320EA6ED890EF34036AD90FE96E17
:10092000000E0320EA6EECCFD7F1ED52EFCFD6F1F7
:10093000036AF151F30FE96E000E0320EA6ED890BE
:10094000EF34036AC10FE96E000E0320EA6EECCFAC
:1009500003F0ED52EF500101D65D006E0350D75900
:10096000D5C1EAFF01C0E9FFEC6EED5200C0EFFF18
:100970000001F12B036AF151F30FE96E000E032021
:10098000EA6EEFCFD4F10101D435006E0036FC0ED3
:100990000016C250830B0010C26E000E016EC150D3
:1009A000F80B0110C16E020E006E002EFED7000083
:1009B0000001F151090812E28C96F16B228A8899A4
:1009C000F22B180E016EC250830B0110C26E000E86
:1009D000016EC150F80B0110C16E01D0C28201013D
:1009E0009E9C000154EF00F0006A016A0101D6519B
:1009F000D890D7B1002600320132D7B3002600329A
:100A00000132D7B5002600320132D7B700260032B6
:100A10000132D7B9002600320132D7BB002600329E
:100A20000132D7BD002600320132D7BF0026003286
:100A30000132000112001B5204E1BC6A9C6A49D0D9
:100A400046D01BBE1ED01B5000081BE21BBE03D0AD
:100A50001B500E0809E31CBE03D01C50000804E321
:100A60001C501B5C01E02182070E0101D66F1BC0E8
:100A7000D7F10001B9DF3C0E01241F6E040E9C6EFD
:100A800026D0000ED8801B54006EE8BE03D0005064
:100A90000E080DE3000ED8801C54006EE8BE03D093
:100AA0000050000804E31C501B5C01E02182000E92
:100AB000D8801B540101D56F070ED66FD5C1D7F171
:100AC000000192DF3C0E01241F6E020E9C6E1FC0BF
:100AD000BCFF12001A5206E10F014A6B1A6B4DD08F
:100AE0004AD000011ABE20D01A5000081DE21ABEDA
:100AF00003D01A500E0809E31DBE03D01D50000894
:100B000004E31D501A5C01E02180070E0101D66F3D
:100B10001AC0D7F1000168DF3C0E01241E6E040EDE
:100B20000F011A6F28D00001000ED8801A54006EF1
:100B3000E8BE03D000500E080DE3000ED8801D540F
:100B4000006EE8BE03D00050000804E31D501A5C9C
:100B500001E02180000ED8801A540101D56F070EE4
:100B6000D66FD5C1D7F100013FDF3C0E01241E6EC8
:100B7000020E0F011A6F1EC04AFF00011200216A07
:100B80005ADFA8DF21520CE021A202D0C80EBC6EB1
:100B900021A004D0C80E0F014A6F00011E0E206E66
:100BA0001AC01DF01BC01CF01200CE50CFCF03F0B6
:100BB000490F0101D46FFC0ECF20CF6ED4C1CEFF00
:100BC00000018E2B8E51030833E28E6B010E8A27B3
:100BD000D8B08B2BD8B48C2BD8B48D2B8F530AE084
:100BE000902B9051630806E2906B8F2F03D01B6A05
:100BF0001A6AC5DF205206E0202E04D01FC0BCFFB9
:100C00001EC04AFF0101016B82A0012B000E82A2CF
:100C1000010E006ED890003600500113000E82A421
:100C2000010E006E00360036FC0E00160050011357
:100C300001010253D8B45FD00351006E0451036E1A
:100C4000035004E10052000122E00101010E035CA7
:100C500005E1F40E005C000122E00101030E035CDB
:100C600005E1E80E005C000122E00101050E035CD5
:100C700005E1DC0E005C000122E00101070E035CCF
:100C800005E1D00E005C000122E0010127D0010146
:100C900002A901D08A9A02A101D08A821FD0010143
:100CA00002A101D08A9202A301D08A8417D0010147
:100CB00002A301D08A9402A501D08A860FD0010137
:100CC00002A501D08A9602A701D08A8807D0010127
:100CD00002A701D08A9802A901D08A8A032BD8B42E
:100CE000042B0451080807E2FF0A03E10351C2087C
:100CF00002E2046B036B22B004D0000188A930D05B
:100D000001010001F25302E1C2822AD0F22D02D089
:100D1000C28226D0F251020803E1F22B8C8220D04D
:100D2000F251030802E1C2821BD0F251040803E130
:100D3000F22B8C8415D0F251050802E1C28210D04A
:100D4000F251060803E1F22B8C860AD0F251070813
:100D500002E1C28205D0F22BF251280801E2F26BC7
:100D60009E9054EF00F0B250B3CF03F0010106257E
:100D7000D46FB3500721B36ED4C1B2FF84A402D0A4
:100D80008D9401D08D84A192000154EF00F022A235
:100D900015D0856B036A8551750FE96E000E03202F
:100DA000EA6E000E81A0010EEF6EF298880ED56EED
:100DB000DF0ED76E2F0ED66EF28A8881F29254EF34
:100DC00000F08451010A17E0030A1AE0010A1CE04E
:100DD000070A1FE0010A22E0030A23E0010A26E0D5
:100DE0000F0A29E0010A2BE0050A2EE01C0A2EE07A
:100DF000010A2EE02FD0050E1A6E120E1B6E2BD09C
:100E00000E0E1A6E1B6E27D0120E1A6E050E1B6E7A
:100E100022D0F20E1A6E0E0E1B6E1DD01A6A1B6ABD
:100E20001AD00E0E1A6EF20E1B6E15D0FB0E1A6E35
:100E3000EE0E1B6E10D0F20E1A6E1B6E0CD0EE0E64
:100E40001A6EFB0E1B6E07D007D005D005D003D05D
:100E500003D001D001D093DEB7EF07F00101D56BCD
:100E6000D56BD5511F080DE38C88110E006E002E36
:100E7000FED78C980F0E006E002EFED700D0D52B1B
:100E8000F0D7000112000101D491000188A175D0B2
:100E9000D650D7CF03F02F0F0101D56FE40ED72026
:100EA000D76ED5C1D6FF0001852B85510D080CE307
:100EB000036A8551750FE96E000E0320EA6E000E7D
:100EC00081A0010EEF6E58D0752D51D0762D4FD0E8
:100ED00077C089F078390101D56FF00ED517000180
:100EE0007935006E00360036F80E0016005001010C
:100EF000D51300017A35006E0036FC0E0016005046
:100F00000101D513D89000017B350101D5110001F5
:100F10007C11836F7D390101D56FD537E00ED51770
:100F200000017E39006EF00E001600500101D5134D
:100F300000017F35006E00360036F80E00160050B6
:100F40000101D51300018035006E0036FC0E00163D
:100F500000500101D513D890000181350101D51150
:100F600000018211846F228E22A601D02AD7F28836
:100F7000F29AD56AF292889190D088A38AD0D650FE
:100F8000D7CF03F0270F0101D56FF20ED720D76E10
:100F9000D5C1D6FF000188958551010804E3010100
:100FA000D4814AD000018551020809E10101D491A0
:100FB000000188A703D00101D48100013ED08551F2
:100FC0000D080CE288938877F288F29AD56A9D80A2
:100FD000F292229C0101D4812FD000018551080892
:100FE00018E285510D0815E3080E855D016E200E8F
:100FF000006E015204E0D8900032012EFCD7005060
:10100000861503E00101D48102D00101D49114D0EE
:101010000001030E855D016E100E006E015204E0AA
:10102000D8900032012EFCD70050871503E0010153
:10103000D48102D00101D491000122BC0FD0010162
:10104000D4A102D000010AD0000108DF229C852B28
:10105000F20ED76E270ED66E9E9218D022AC10D00C
:101060000101D4B102D000010BD00001F7DE852BC5
:10107000229C8885F20ED76E270ED66E9E9206D0E1
:10108000000E22BC010E8527227C8C9888B583D760
:1010900004D0F288F29AD56AF292F29454EF00F0FA
:1010A000556E6B6E6F776E20436F6D6D616E642051
:1010B0003F210D0A0000556E6B6E6F776E20436FF7
:1010C0006D6D616E64203F210D0A0000556E6B6EE0
:1010D0006F776E20436F6D6D616E64203F210D0A46
:1010E0000000556E6B6E6F776E20436F6D6D616E95
:1010F00064203F210D0A0000556E6B6E6F776E20E5
:10110000436F6D6D616E64203F210D0A0000556EC6
:101110006B6E6F776E20436F6D6D616E64203F2143
:101120000D0A000042004200556E6B6E6F776E2014
:10113000436F6D6D616E64203F210D0A0000556E96
:101140006B6E6F776E20436F6D6D616E64203F2113
:101150000D0A0000436F756C646E27742063616C28
:1011600069627261746520776974682074686520AB
:10117000555342206361626C6520706C75676765CA
:10118000640D0A00506C61636520746865204B2D06
:101190004A756E696F72206F6E206120737572667A
:1011A00061636520776974686F7574206F6273740A
:1011B00061636C65206E6561722066726F6D206977
:1011C000742E0A0D0000507265737320454E54450D
:1011D0005220746F2070726F636565640A0D0000A1
:1011E0004E6F772072657475726E20746865204B3F
:1011F0002D4A756E696F722E205468652067726F74
:10120000756E642073656E736F72206D75737420D4
:1012100062652066726565206F66206F6273746117
:10122000636C652E0A0D0000507265737320454E85
:1012300054455220746F2070726F636565640A0DA7
:10124000000043616C6962726174696F6E20646F43
:101250006E650A0D0000556E6B6E6F776E20436FE2
:101260006D6D616E64203F210D0A0000556E6B6E3E
:101270006F776E20436F6D6D616E64203F210D0AA4
:101280000000556E6B6E6F776E20436F6D6D616EF3
:1012900064203F210D0A0000556E6B6E6F776E2043
:1012A000436F6D6D616E64203F210D0A0000534550
:1012B000540A000053454C45435420300A00746BD7
:1012C0009EAA34D022A80CD001012253D8B402D057
:1012D000000106D09EAAFED7AECFD4F125D00001E2
:1012E000036A7351230FE96E000E0320EA6E9EAA73
:1012F000FED7AECFEFFF036A7351230FE96E000EE6
:101300000320EA6EEF500D080AE0036A7351230FC1
:10131000E96E000E0320EA6EEF500A0801E1228810
:1013200073514E0801E3732B0001CAD79E9A54EF04
:1013300000F0010E746FA4AA37D022A80DD00101CD
:101340002253D8B402D0000107D0A4AAFED71DCFE3
:10135000D4F1010127D00001036A7351230FE96E14
:10136000000E0320EA6EA4AAFED70F011DCFEFFFE7
:10137000036A00017351230FE96E000E0320EA6E29
:10138000EF500D080AE0036A7351230FE96E000E57
:101390000320EA6EEF500A0801E1228873514E08DB
:1013A00001E3732B0001C7D7A49A54EF00F07370C8
:1013B000656564206D73203A20257564200D0A0050
:1013C0006D73203A20254C64200D0A00736C65650E
:1013D00070203473203A20254C64200D0A00736C71
:1013E00065657020313573203A20254C6420200D2E
:1013F0000A00010EEA6E990EE96EEF500EE0050E3E
:10140000016E006A002EFED7012EFBD72E0E006E55
:10141000002EFED700D0EF2EF2D712000900F552B1
:101420000DE0F6CFB2F1F7CFB3F1F5509EA8FED79D
:10143000AD6EB2C1F6FFB3C1F7FFF0D712000900DD
:10144000F6CFA2F1F7CFA3F1F5509EA8FED7AD6E6F
:10145000A2C1F6FFA3C1F7FF0101A12F01D002D065
:101460000001EDD7000112000101A451016AA35D42
:1014700003E2A3C100F00CD0006A080EA56FA337E9
:101480000036A451005CD8B0006E0136A52FF7D706
:1014900000011200200E010199A9300E9A6F98C127
:1014A00000F098AF08D0001E002A00C098F12D0E61
:1014B0009A6F998F9981015098C1A3F1640EA46F1E
:1014C0000001D2DF00C098F1300E012401019B6FB2
:1014D00098C1A3F10A0EA46F0001C6DF300E0024EC
:1014E00001019D6F300E01249C6F9AC100F0300EF7
:1014F0009B5D04E0998399BF998512D099B510D06E
:101500009AC19BF199B304D0300E9C5D04E099819F
:1015100099BF998305D0D8A49981D8B49BC19CF177
:1015200099B505D099B307D099B109D00CD09A518B
:101530009EA8FED7AD6E9B519EA8FED7AD6E9C5166
:101540009EA8FED7AD6E9D519EA8FED7AD6E000140
:1015500012000900F5520FE0F6CFB2F1F7CFB3F168
:10156000F550A4A8FED70F011C6FB2C1F6FFB3C19E
:10157000F7FF0001EED712000900F6CF99F1F7CF7F
:101580009AF1F550A4A8FED70F011C6F99C1F6FF80
:101590009AC1F7FF0101982F01D002D00001ECD7CA
:1015A00000011200200E010199A9300E9A6F98C116
:1015B00000F098AF08D0001E002A00C098F12D0E50
:1015C0009A6F998F9981015098C1A3F1640EA46F0D
:1015D00000014ADF00C098F1300E012401019B6F29
:1015E00098C1A3F10A0EA46F00013EDF300E002463
:1015F00001019D6F300E01249C6F9AC100F0300EE6
:101600009B5D04E0998399BF998512D099B510D05C
:101610009AC19BF199B304D0300E9C5D04E099818E
:1016200099BF998305D0D8A49981D8B49BC19CF166
:1016300099B505D099B309D099B10DD012D09A516E
:10164000A4A8FED70F011C6F01019B51A4A8FED7CF
:101650000F011C6F01019C51A4A8FED70F011C6F44
:1016600001019D51A4A8FED70F011C6F00011200BB
:101670000101976B2F0E926EC10E936E9F0E946EAA
:10168000000E956E966EBF0E976E040E986E896A68
:101690008A6A8B6A8C6A8D6A8E6A8F6A700ED36EC4
:1016A0009B6A646A976B97510A08D8A092D0D89029
:1016B0009735036A910FE96E000E0320EA6EEC6A1B
:1016C000ED52EF6AD8909735036AA90FE96E000EC4
:1016D0000320EA6EEC6AED52EF6AD8909735036A00
:1016E000C10FE96E000E0320EA6E9751140DF350FE
:1016F000010F9A6FF2CF9BF1F29E636A9AC162FF6B
:101700007F9C7F9E7F8061509BBFF28E036AEF6E4D
:1017100003C0ECFFED52D8909735036AC10F016EFC
:10172000000E03220150986F03C099F1D8909735AD
:10173000036AC10FE96E000E0320EA6EECCF9BF145
:10174000ED52EFCF9AF19AC103F0000E9A6F03C0E9
:101750009BF19751140DF3509C6FF2CF9DF1F29EC7
:10176000636A9CC162FF7F9C7F9E7F8061509DBFAA
:10177000F28E9A25016E000E9B21036E01509A6F26
:1017800003C09BF199C1EAFF98C1E9FF9BC1ECFF3F
:10179000ED529AC1EFFFD8909735036AC10FE96EF9
:1017A000000E0320EA6EECCF99F1ED52EFCF98F1E5
:1017B000983D0DD0993D0BD0D8909735036AC10F55
:1017C000E96E000E0320EA6EEC6AED52EF6A972B89
:1017D0006AD71A6A1B6A8C928C948C960001F36B00
:1017E000020EF46F040EF56F010EF66F080EF76F20
:1017F000090EF86F030EF96F050EFA6F070EFB6FF7
:101800000A0EFC6F000E0F01236F070E246FFF0EF0
:10181000256FC196C198C19AC16A0001F335006E67
:101820000036FC0E0016C250830B0010C26E000E74
:10183000016EC150F80B0110C16EA50EC06EC280C2
:101840009D8CFC0ECF6E490ECE6E070ECD6EAA6A31
:101850009D8022A402D09D8AA38AA4AA06D0A4AA0D
:10186000FED70F011D510001F8D79EAA04D09EAAF1
:10187000FED7AE50FAD70101016B82A0012B000EFA
:1018800082A2010E006ED890003600500113000EA7
:1018900082A4010E006E00360036FC0E00160050C9
:1018A0000113D56AB06A200EB16EF80E0B6F8A0E66
:1018B0000A6FF80E0D6FF10E0C6FF90E0F6F5A0EC6
:1018C0000E6FF90E116FB70E106FFA0E136F130E25
:1018D000126FFA0E156F730E146FFA0E176FB70EA4
:1018E000166FFB0E196F030E186FFB0E1B6F4A0E5F
:1018F0001A6FFB0E1D6F8E0E1C6FFB0E1F6FCE0E30
:101900001E6FFC0E216F0A0E206F000E04096B6E15
:10191000C80E6C6E0C0EBB6E0F01496F410E2D6F21
:101920009C6A1A6B280EC66EF19CF288C00EF212E9
:10193000320E0101996F00015CDDF60EF66E000EAD
:10194000F76E6CDD180EF66E010EF76E050E0101D6
:10195000A16F000174DD380EF66E010EF76E5EDDCC
:101960002D0E9EA8FED7AD6E010E0101986F996FE6
:10197000000190DD200E9EA8FED7AD6E280E9EA819
:10198000FED7AD6E3A0EF66E010EF76E47DD280EED
:10199000F66E010EF76E0E0E0101A16F00014FDD14
:1019A000440EF66E010EF76E39DD600EF66E010E16
:1019B000F76ECFDD820EF66E010EF76E050E010199
:1019C000986F0001D9DDA20EF66E010EF76EC1DD33
:1019D0002D0EA4A8FED70F011C6F010E0101986FF8
:1019E000996F0001DFDD200EA4A8FED70F011C6F48
:1019F000280EA4A8FED71C6FA40EF66E010EF76E7B
:101A00000001A7DD920EF66E010EF76E0E0E0101BB
:101A1000986F0001B1DDAE0EF66E010EF76E99DD26
:101A2000FAEF26F0040E0101976FFA0E996F00018C
:101A3000E0DC0101972FF9D70001FCEF26F001014E
:101A4000A46BA26B0A0EA36FA16B9F51A01103E1BF
:101A5000000E016ECAD0A451A42B036A9F25E96E23
:101A6000A0510320EA6EEFCFA5F1A5512D080DE19D
:101A7000010EA26FA451A42B036A9F25E96EA05109
:101A80000320EA6EEFCFA5F10DD0A5512B080AE196
:101A9000A451A42B036A9F25E96EA0510320EA6E8E
:101AA000EFCFA5F1A5512F08D8B097D0A55139088F
:101AB000D8A093D0A551300821E1036AA4519F25F5
:101AC000E96EA0510320EA6EEF5078080AE0036A3D
:101AD000A4519F25E96EA0510320EA6EEF505808EB
:101AE0000DE1100EA36FA42BA451A42B036A9F2514
:101AF000E96EA0510320EA6EEFCFA5F1A3510A08C9
:101B000024E1A5512F0820E2A55139081DE3196AE7
:101B1000F2BE198EF29E0A0ED66FA1C1D7F1000156
:101B2000F4EC04F019BEF28E300E0101A55D012423
:101B3000A16FA451A42B036A9F25E96EA051032035
:101B4000EA6EEFCFA5F1DDD748D0A351100845E1EB
:101B5000A551600806E2A5517A0803E3A551DF0B01
:101B600001D0A551A56FA5512F0803E2A551390851
:101B700006E2A551400831E2A55146082EE3A551E1
:101B80002F080CE2A551390809E3A139A66FF00E20
:101B9000A617300EA55DA625A16F09D0A139A66FA5
:101BA000F00EA617410EA55D0A0FA625A16FA45140
:101BB000A42B036A9F25E96EA0510320EA6EEFCFA4
:101BC000A5F1A551600806E2A5517A0803E3A551E5
:101BD000DF0B01D0A551A56FC6D7A22D04D0A3510C
:101BE0000A0801E1A16DA1C101F000011200020E7D
:101BF00001019C6F9D6B036A9C51230FE96E000EDF
:101C00000320EA6EEF502C082EE0036A9C51230F4C
:101C1000E96E000E0320EA6EEF500A0824E0036A22
:101C20009C51230FE96E000E0320EA6EEF500D0861
:101C30001AE0036A9D51970F016E010E032203C043
:101C4000A0F1036A9C51230FE96E000E0320EA6E97
:101C5000EFCFA1F1A0C1EAFF01C0E9FFA1C1EFFFF1
:101C60009C2B9D2BC8D7036A9D51970FE96E010EDF
:101C70000320EA6EEF6A010EA06F970E9F6F0001BE
:101C8000DEDE01C09EF1036A01019C51230FE96E63
:101C9000000E0320EA6EEF500A080AE0036A9C5126
:101CA000230FE96E000E0320EA6EEF500D0811E1DC
:101CB0000001745307E1CC0EF66E100EF76E0EECB9
:101CC0000AF005D0E20EF66E100EF76E42DCF4D08C
:101CD00001019C2B9D6B036A9C51230FE96E000E42
:101CE0000320EA6EEF502C082EE0036A9C51230F6C
:101CF000E96E000E0320EA6EEF500A0824E0036A42
:101D00009C51230FE96E000E0320EA6EEF500D0880
:101D10001AE0036A9D51970F016E010E032203C062
:101D2000A0F1036A9C51230FE96E000E0320EA6EB6
:101D3000EFCFA1F1A0C1EAFF01C0E9FFA1C1EFFF10
:101D40009C2B9D2BC8D7036A9D51970FE96E010EFE
:101D50000320EA6EEF6A036A9C51230FE96E000EBE
:101D60000320EA6EEF500A080AE0036A9C51230F31
:101D7000E96E000E0320EA6EEF500D0812E100013B
:101D8000745307E1F80EF66E100EF76E0EEC0AF0C3
:101D900006D00E0EF66E110EF76EA9EC0AF08CD07E
:101DA00001019EC11AF0010EA06F970E9F6F0001F6
:101DB00046DE01C01BF001019C2B9D6B036A9C5108
:101DC000230FE96E000E0320EA6EEF500A0824E0AC
:101DD000036A9C51230FE96E000E0320EA6EEF5058
:101DE0000D081AE0036A9D51970F016E010E032240
:101DF00003C0A0F1036A9C51230FE96E000E03207B
:101E0000EA6EEFCFA1F1A0C1EAFF01C0E9FFA1C1D5
:101E1000EFFF9C2B9D2BD2D7036A9D51970FE96E44
:101E2000010E0320EA6EEF6A1ABE06D01A5014089B
:101E300003E2140E1A6E06D01A50800A6B0802E3F1
:101E4000EC0E1A6E1BBE06D01B50140803E2140ED3
:101E50001B6E06D01B50800A6B0802E3EC0E1B6E53
:101E6000010EA06F970E9F6F0001E9DD01C08FF09A
:101E7000196AF2BE198EF29EBFEC05F019BEF28E01
:101E800074530DE1610E9EA8FED7AD6E0D0E9EA897
:101E9000FED7AD6E0A0E9EA8FED7AD6E0DD0610EB8
:101EA000A4A8FED70F011C6F0D0EA4A8FED71C6FAF
:101EB0000A0EA4A8FED71C6F000119EF24F074537A
:101EC00022E1620E9EA8FED7AD6E2C0E9EA8FED714
:101ED000AD6E240EF66E110EF76E0EEC0AF02D0E9E
:101EE0009EA8FED7AD6E010E0101986F996F00019B
:101EF0004AEC0AF00D0E9EA8FED7AD6E0A0E9EA803
:101F0000FED7AD6E25D0620EA4A8FED70F011C6FC0
:101F10002C0EA4A8FED71C6F260EF66E110EF76EBF
:101F20000001A9EC0AF02D0EA4A8FED70F011C6F2A
:101F3000010E0101986F996F0001D2EC0AF00D0EAD
:101F4000A4A8FED70F011C6F0A0EA4A8FED71C6F11
:101F5000000119EF24F0736B2298010E0101226F2A
:101F6000020E986FFA0E996F0001F9EC09F0010169
:101F7000982FF8D72B0EA4A8FED70F011C6F2B0E9D
:101F8000A4A8FED71C6F2B0EA4A8FED71C6F040EAE
:101F90000101986FC80E996F0001F9EC09F0010179
:101FA000982FF8D70001736B2298AE0EF66E120EC2
:101FB000F76EA9EC0AF0060E0101986FFA0E996F00
:101FC0000001F9EC09F00101982FF8D759C097F1F9
:101FD0000001736BB40EF66E120EF76EA9EC0AF0E8
:101FE000040E0101986FFA0E996F0001F9EC09F0E7
:101FF0000101982FF8D7226B0001745317E1630E8B
:102000009EA8FED7AD6E2C0E9EA8FED7AD6E010128
:1020100097519EA8FED7AD6E0D0E9EA8FED7AD6E51
:102020000A0E9EA8FED7AD6E19D00001630EA4A8BB
:10203000FED70F011C6F2C0EA4A8FED71C6F010148
:102040009751A4A8FED70F011C6F0D0EA4A8FED7B0
:102050001C6F0A0EA4A8FED71C6F0101000119EF26
:1020600024F0020E01019C6F9D6B036A9C51230FAB
:10207000E96E000E0320EA6EEF502C082EE0036A92
:102080009C51230FE96E000E0320EA6EEF500A0800
:1020900024E0036A9C51230FE96E000E0320EA6ED0
:1020A000EF500D081AE0036A9D51970F016E010E63
:1020B000032203C0A0F1036A9C51230FE96E000EB6
:1020C0000320EA6EEFCFA1F1A0C1EAFF01C0E9FF52
:1020D000A1C1EFFF9C2B9D2BC8D7036A9D51970F81
:1020E000E96E010E0320EA6EEF6A010EA06F970EF3
:1020F0009F6F0001A4DC01C09EF1036A01019C51A5
:10210000230FE96E000E0320EA6EEF500A080AE082
:10211000036A9C51230FE96E000E0320EA6EEF5014
:102120000D0812E10001745307E1280EF66E110E3E
:10213000F76E0EEC0AF006D03E0EF66E110EF76E3C
:10214000A9EC0AF083D001019C2B9D6B036A9C5182
:10215000230FE96E000E0320EA6EEF500A0824E018
:10216000036A9C51230FE96E000E0320EA6EEF50C4
:102170000D081AE0036A9D51970F016E010E0322AC
:1021800003C0A0F1036A9C51230FE96E000E0320E7
:10219000EA6EEFCFA1F1A0C1EAFF01C0E9FFA1C142
:1021A000EFFF9C2B9D2BD2D7036A9D51970FE96EB1
:1021B000010E0320EA6EEF6A9EC11AF01ABE06D025
:1021C0001A50140803E2140E1A6E06D01A50800A30
:1021D0006B0802E3EC0E1A6E010EA06F970E9F6F54
:1021E00000012DDC01C01BF01BBE06D01B501408E3
:1021F00003E2140E1B6E06D01B50800A6B0802E32C
:10220000EC0E1B6E196AF2BE198EF29EBFEC05F041
:1022100019BEF28E74530DE1640E9EA8FED7AD6E0A
:102220000D0E9EA8FED7AD6E0A0E9EA8FED7AD6E0F
:102230000DD0640EA4A8FED70F011C6F0D0EA4A82C
:10224000FED71C6F0A0EA4A8FED71C6F000119EF61
:1022500024F0200E010198A9300E996F97C100F06B
:1022600097AF08D0001E002A00C097F12D0E996F7D
:10227000988F9881015097C1A3F1640EA46F00015B
:1022800034EC0AF000C097F1300E012401019A6F7E
:1022900097C1A3F10A0EA46F000134EC0AF0300ECE
:1022A000002401019C6F300E01249B6F99C100F046
:1022B000300E9A5D04E0988398BF988512D099C13A
:1022C0009AF1200E996F300E9B5D04E0988198BFC3
:1022D000988307D0D8A4988104E19AC19BF1200E7D
:1022E0009A6F98B505D098B307D098B109D00CD0A3
:1022F00099519EA8FED7AD6E9A519EA8FED7AD6E9D
:102300009B519EA8FED7AD6E9C519EA8FED7AD6E88
:1023100000011200200E010198A9300E996F97C19B
:1023200000F097AF08D0001E002A00C097F12D0ED4
:10233000996F988F9881015097C1A3F1640EA46F93
:10234000000134EC0AF000C097F1300E01240101C5
:102350009A6F97C1A3F10A0EA46F000134EC0AF042
:10236000300E002401019C6F300E01249B6F99C137
:1023700000F0300E9A5D04E0988398BF988512D0E3
:1023800099C19AF1200E996F300E9B5D04E09881FF
:1023900098BF988307D0D8A4988104E19AC19BF193
:1023A000200E9A6F98B505D098B309D098B10DD08A
:1023B00012D09951A4A8FED70F011C6F01019A51A8
:1023C000A4A8FED70F011C6F01019B51A4A8FED742
:1023D0000F011C6F01019C51A4A8FED70F011C6FB7
:1023E00000011200745323E1650E9EA8FED7AD6E66
:1023F0002C0E9EA8FED7AD6E1AC097F1180E0101E3
:10240000986F000126DF2C0E9EA8FED7AD6E1BC074
:1024100097F1180E0101986F00011BDF0D0E9EA8A9
:10242000FED7AD6E0A0E9EA8FED7AD6E25D0650E06
:10243000A4A8FED70F011C6F2C0EA4A8FED71C6FFA
:102440001AC097F1180E0101986F000163DF2C0E7E
:10245000A4A8FED70F011C6F1BC097F1180E010135
:10246000986F000157DF0D0EA4A8FED70F011C6F57
:102470000A0EA4A8FED71C6F000119EF24F0D8B2F1
:1024800004D0010EEA6EB50EE96E006A016A026AB6
:10249000036A0101B56BB66BB76BB86BB451B3117E
:1024A000B211B1112CE0200EB96FD890AD37AE3714
:1024B000AF37B037B537B637B737B837B451B85D7F
:1024C00008E1B351B75D05E1B251B65D02E1B1512A
:1024D000B55D0FE3B151B55FB251D8A0B23DB65F63
:1024E000B351D8A0B33DB75FB451D8A0B43DB85FE5
:1024F000D8800036013602360336B92FD6D7B5C19B
:10250000EFFFB6C1ECFFB7C1ECFFB8C1ECFF0001B3
:102510001200E9500101A56FA4AF0DD0A507A58B4E
:10252000A11FA21FA31FA41FA12BD8B4A22BD8B4F4
:10253000A32BD8B4A42B3B0EAC6F9A0EAB6FCA0E74
:10254000AA6FA96B0A0EA76FD882010EEA6EA10EC0
:10255000E96EA4C1B0F1A3C1AFF1A2C1AEF1A1C1B6
:10256000ADF1ACC1B4F1ABC1B3F1AAC1B2F1A9C133
:10257000B1F1000184DF0150005213E10101A751C4
:10258000010AD8A402D000010CD0A5510DE00F0B18
:10259000A75D01E028E2A5BF26D0A5BD05D0200E8D
:1025A0001DD0200E0101A517A5AB0AD0A59B00C028
:1025B000A5F12D0E9EA8FED7AD6EA5C100F0A56BAE
:1025C000300EA5AB0BD0A59B00C0A5F12D0E9EA88B
:1025D000FED7AD6EA5C100F0A56B300E00260050F1
:1025E0009EA8FED7AD6ED892ACC1B0F1ABC1AFF131
:1025F000AAC1AEF1A9C1ADF1B46BB36BB26B0A0E57
:10260000B16F00013CDF03C0ACF102C0ABF101C00F
:10261000AAF100C0A9F10101A72F96D7000112006D
:10262000E95001019B6F9AAF0DD09B079B8B971FC1
:10263000981F991F9A1F972BD8B4982BD8B4992B11
:10264000D8B49A2B3B0EA26F9A0EA16FCA0EA06F40
:102650009F6B0A0E9D6FD882010EEA6E970EE96E8F
:102660009AC1B0F199C1AFF198C1AEF197C1ADF186
:10267000A2C1B4F1A1C1B3F1A0C1B2F19FC1B1F146
:102680000001FDDE0150005213E101019D51010ADC
:10269000D8A402D000010CD09B510DE00F0B9D5D22
:1026A00001E02EE29BBF2CD09BBD05D0200E21D097
:1026B000200E01019B179BAB0CD09B9B00C09BF194
:1026C0002D0EA4A8FED70F011C6F01019BC100F0C5
:1026D0009B6B300E9BAB0DD09B9B00C09BF12D0ED6
:1026E000A4A8FED70F011C6F01019BC100F09B6BDA
:1026F000300E00260050A4A8FED70F011C6F010168
:10270000D892A2C1B0F1A1C1AFF1A0C1AEF19FC1F9
:10271000ADF1B46BB36BB26B0A0EB16F0001AFDEFB
:1027200003C0A2F102C0A1F101C0A0F100C09FF15D
:1027300001019D2F90D7000157EF23F001010553B0
:1027400006E1A092B06A200EB16E8D9461D0055161
:102750000C0813E3D8900535036A080FE96E010EE3
:102760000320EA6EECCF03F0ED52EFCF06F103C089
:1027700007F1B06A370EB16E4AD00551180817E359
:102780000C0E055D006ED89000360050036A080FED
:10279000E96E010E0320EA6EECCF03F0ED52EFCFAD
:1027A00006F103C007F1B06A270EB16E30D00551B3
:1027B000240817E3180E055D006ED890003600500F
:1027C000036A080FE96E010E0320EA6EECCF03F0F6
:1027D000ED52EFCF06F103C007F1B06A170EB16EEC
:1027E00016D0240E055D006ED89000360050036AA6
:1027F000080FE96E010E0320EA6EECCF03F0ED52F4
:10280000EFCF06F103C007F1B06A070EB16EA082E8
:10281000000156EF14F0020E01019C6F9D6B036ADC
:102820009C51230FE96E000E0320EA6EEF500A0858
:1028300024E0036A9C51230FE96E000E0320EA6E28
:10284000EF500D081AE0036A9D51970F016E010EBB
:10285000032203C09FF1036A9C51230FE96E000E0F
:102860000320EA6EEFCFA0F19FC1EAFF01C0E9FFAC
:10287000A0C1EFFF9C2B9D2BD2D7036A9D51970FD0
:10288000E96E010E0320EA6EEF6A010EA06F970E4B
:102890009F6F00011FEC0DF001C005F10101055112
:1028A000300802E2300E056F000148D774530DE185
:1028B000680E9EA8FED7AD6E0D0E9EA8FED7AD6E1B
:1028C0000A0E9EA8FED7AD6E0DD0680EA4A8FED746
:1028D0000F011C6F0D0EA4A8FED71C6F0A0EA4A832
:1028E000FED71C6F000119EF24F001019BBF10D02F
:1028F0000F0E006E9A3900160A0E005C03E2300ECD
:10290000002602D09B51002600509EA8FED7AD6E37
:102910000F0E9A170A0E9A5D02E2300E02D09B9FAC
:102920009B519A279A519EA8FED7AD6E00011200C6
:1029300001019BBF12D00F0E006E9A3900160A0ECD
:10294000005C03E2300E002602D09B5100260050AE
:10295000A4A8FED70F011C6F01010F0E9A170A0ED3
:102960009A5D02E2300E02D09B9F9B519A279A51AA
:10297000A4A8FED70F011C6F00011200745307E1D9
:10298000540EF66E110EF76E0EEC0AF05CD1840E4A
:10299000F66E110EF76EA9EC0AF0C60EF66E110E69
:1029A000F76EA9EC0AF022980101976B97510A087B
:1029B00018E3D8909735036AC10FE96E000E032023
:1029C000EA6EEC6AED52EF6AD8909735036A9A0F77
:1029D000E96E010E0320EA6EEC6AED52EF6A972B66
:1029E000E5D722A8FED72290986B985107083BE3C1
:1029F000229A0001888922AAFED70101976B97517C
:102A000005082FE3D8909735036A9A0F016E010EDF
:102A1000032201C0B2F103C0B3F103C0EAFF01C059
:102A2000E9FFECCFB5F1ED52EFCFB4F1D890973587
:102A3000036AA90FE96E000E0320EA6EECCF03F0E3
:102A4000ED52EF50B425016EB5510322B3C1EAFF38
:102A5000B2C1E9FF03C0ECFFED5201C0EFFF972BBD
:102A6000CED7982BC2D7E00EF66E110EF76E00018E
:102A7000A9EC0AF0280EF66E120EF76EA9EC0AF019
:102A8000229822A8FED70101986B985107083CE3D1
:102A9000229A0001888922AAFED7070E0101976FAA
:102AA00097510A082FE3D8909735036A9A0F016E61
:102AB000010E032201C0B2F103C0B3F103C0EAFF6B
:102AC00001C0E9FFECCFB5F1ED52EFCFB4F1D890F2
:102AD0009735036AA90FE96E000E0320EA6EECCF6A
:102AE00003F0ED52EF50B425016EB5510322B3C18E
:102AF000EAFFB2C1E9FF03C0ECFFED5201C0EFFFF6
:102B0000972BCED7982BC1D7976B97510A08D8A08F
:102B100092D0D8909735036AC10F016E000E032240
:102B200003C0B3F1D8909735036A9A0FE96E010E8E
:102B30000320EA6EECCFB5F1ED52EFCFB4F1B53131
:102B4000036EB431026E03320232033202321F0EC0
:102B50000316B3C1EAFF01C0E9FF03C0ECFFED5269
:102B600002C0EFFFD8909735036AC10FE96E000EDF
:102B70000320EA6E140EEF24016E000EEC20ED52DD
:102B800001C0EFFFEC6ED8909735036AC10FE96E74
:102B9000000E0320EA6EECCFB3F1ED52EFCFB2F1AD
:102BA000B2C199F19751140DF350B26FF250006E0B
:102BB000F29E636AB2C162FF99C161FF7F9C7F9EF2
:102BC0007F840F01550E7E6EAA0E7E6E7F827FB2CD
:102BD000FED77F940050F212D89001019735036A16
:102BE000C10FE96E000E0320EA6EECCFB3F1ED5297
:102BF000EFCFB2F1B26BB3C199F19751140DF3500D
:102C0000010FB26FF250006EF29E636AB2C162FFB2
:102C100099C161FF7F9C7F9E7F840F01550E7E6E60
:102C2000AA0E7E6E7F827FB2FED77F940050F21292
:102C30000101972B6AD72280420EF66E120EF76EB4
:102C40000001A9EC0AF019EF24F0C69E9E96CEC1B1
:102C5000C9FF020EC6BE05D09EA6FED7000EC5BC9B
:102C6000010E016E1200C69CC586C5B6FED700B027
:102C7000C59A00A0C58AC588C5B8FED7C9CF01F0DE
:102C800012006A0EA4A8FED70F011C6F030E0101EB
:102C9000976F9751FD0845E3C580C5B0FED7010E7B
:102CA000975D996FCE6F0001D0DF015233E10101D2
:102CB000CE6B0001CADFC582C5B2FED797C1CEF187
:102CC000C4DF006AD0DF01C098F1C584C5B4FED767
:102CD00074530FE1010E0101975D996F2C0E9EA8B0
:102CE000FED7AD6E99C19AF1570E9B6F0001FDDDC5
:102CF00010D0010E0101975D996F2C0EA4A8FED78C
:102D00000F011C6F99C19AF1570E01019B6F0001D1
:102D10000FDE03D0C584C5B4FED7020E010197278C
:102D2000B8D70001745309E10D0E9EA8FED7AD6E11
:102D30000A0E9EA8FED7AD6E09D00D0EA4A8FED730
:102D40000F011C6F0A0EA4A8FED71C6F000119EF1B
:102D500024F001019851070B006E9831016E013289
:102D600001321F0E011601509925E96E000E9A21BD
:102D7000EA6EEFCF01F0002A01D00132002EFDD71C
:102D8000000131EF17F001019851070B006E9831E7
:102D9000016E013201321F0E011601509A25E96EB3
:102DA000000E9B21EA6E016A012A002A01D0013639
:102DB000002EFDD7995303E00150EF1203D0011EFE
:102DC0000150EF16000112002550300A09E0010AF7
:102DD0000BE0030A0DE0010A0FE0070A11E015D02D
:102DE000090E0101976F21D00A0E0101976F1DD0C6
:102DF0000B0E0101976F19D00C0E0101976F15D0C2
:102E00000D0E0101976F11D00001745307E1560EAA
:102E1000F66E120EF76E0EEC0AF006D06C0EF66E21
:102E2000120EF76EA9EC0AF00101275033080EE1EB
:102E3000300E255C016E010E006E015204E0D89048
:102E40000036012EFCD7005002134CD02750320818
:102E500022E197C198F10F0E9A6F800E996F0001D1
:102E600078D701A00BD097C198F10101996B0F0E93
:102E70009B6F890E9A6F000186DF0BD097C198F186
:102E8000010E0101996F0F0E9B6F890E9A6F000161
:102E90007ADF19D00101275030080BE197C198F172
:102EA000996B0F0E9B6F890E9A6F00016CDF0BD030
:102EB000010197C198F1010E996F0F0E9B6F890E5A
:102EC0009A6F000160DF300E255C016E010E006E0E
:102ED000015204E0D8900036012EFCD70050FF08C4
:102EE00001010217000174530DE16C0E9EA8FED77C
:102EF000AD6E0D0E9EA8FED7AD6E0A0E9EA8FED733
:102F0000AD6E0DD06C0EA4A8FED70F011C6F0D0E78
:102F1000A4A8FED71C6F0A0EA4A8FED71C6F000140
:102F200019EF24F0EACF9FF1E9CF9EF1010198AFAC
:102F300008D09E8F9EA99E2B971F981F972BD8B4C1
:102F4000982B9839F0099A6F9A27E20F9B6F320FEE
:102F50009D6F98510F0B9B279B279D27E90F9C6F17
:102F60009C279C2797390F0B9C279D279C379D37C3
:102F70009D1F9D3797510F0B9D279A37070E996F0D
:102F80000A0E9C079D27FDE39B079C27FDE39A07FC
:102F90009B27FDE399079A27FDE3010EEA6E990E40
:102FA000E96E070E9E159E9DE9069E1507E19EB9E6
:102FB000E92A9EB903D0200E006E1CD0E9269D0E92
:102FC000E95CD8B49E8DEF50006E08E19EBD06D03E
:102FD0009EB914D09EB702D0200E0BD09EAF06D063
:102FE0002D0E006EED509E9D9E9F04D09E879E9953
:102FF000300E002600509EA8FED7AD6EEE509EAD5E
:10300000DED700011200EACF9FF1E9CF9EF1010166
:1030100098AF08D09E8F9EA99E2B971F981F972B25
:10302000D8B4982B9839F0099A6F9A27E20F9B6FC2
:10303000320F9D6F98510F0B9B279B279D27E90F00
:103040009C6F9C279C2797390F0B9C279D279C37AB
:103050009D379D1F9D3797510F0B9D279A37070E60
:10306000996F0A0E9C079D27FDE39B079C27FDE3B4
:103070009A079B27FDE399079A27FDE3010EEA6E65
:10308000990EE96E070E9E159E9DE9069E1507E1B5
:103090009EB9E92A9EB903D0200E006E1CD0E92605
:1030A0009D0EE95CD8B49E8DEF50006E08E19EBD88
:1030B00006D09EB916D09EB702D0200E0BD09EAF80
:1030C00006D02D0E006EED509E9D9E9F04D09E87D3
:1030D0009E99300E00260050A4A8FED70F011C6F49
:1030E0000101EE509EADDCD7000112007453D8A44C
:1030F0007BD06E0E9EA8FED7AD6E2C0E9EA8FED77E
:10310000AD6E0A0EE96EAAC098F1A9C097F10ADF68
:103110002C0E9EA8FED7AD6E0A0EE96EACC098F1DB
:10312000ABC097F1FFDE2C0E9EA8FED7AD6E0A0E47
:10313000E96EAEC098F1ADC097F1F4DE2C0E9EA8FA
:10314000FED7AD6E0A0EE96EB0C098F1AFC097F130
:10315000E9DE2C0E9EA8FED7AD6E0A0EE96EB2C057
:1031600098F1B1C097F1DEDE2C0E9EA8FED7AD6EB1
:103170000A0EE96EB4C098F1B3C097F1D3DE2C0EFD
:103180009EA8FED7AD6E0A0EE96EBCC098F1BBC01A
:1031900097F1C8DE2C0E9EA8FED7AD6E0A0EE96E22
:1031A000B8C098F1B7C097F1BDDE2C0E9EA8FED72F
:1031B000AD6E0A0EE96EBAC098F1B9C097F1B2DEF1
:1031C0002C0E9EA8FED7AD6E0A0EE96EBEC098F119
:1031D000BDC097F1A7DE0D0E9EA8FED7AD6E0A0EFC
:1031E0009EA8FED7AD6E8FD06E0EA4A8FED70F019D
:1031F0001C6F2C0EA4A8FED71C6F0A0EE96EAAC085
:1032000098F1A9C097F10001FEDE2C0EA4A8FED70C
:103210000F011C6F0A0EE96EACC098F1ABC097F1BC
:103220000001F1DE2C0EA4A8FED70F011C6F0A0EC0
:10323000E96EAEC098F1ADC097F10001E4DE2C0E4E
:10324000A4A8FED70F011C6F0A0EE96EB0C098F15A
:10325000AFC097F10001D7DE2C0EA4A8FED70F0156
:103260001C6F0A0EE96EB2C098F1B1C097F100016F
:10327000CADE2C0EA4A8FED70F011C6F0A0EE96E41
:10328000B4C098F1B3C097F10001BDDE2C0EA4A824
:10329000FED70F011C6F0A0EE96EBCC098F1BBC0CF
:1032A00097F10001B0DE2C0EA4A8FED70F011C6F11
:1032B0000A0EE96EB8C098F1B7C097F10001A3DE1D
:1032C0002C0EA4A8FED70F011C6F0A0EE96EBAC01F
:1032D00098F1B9C097F1000196DE2C0EA4A8FED794
:1032E0000F011C6F0A0EE96EBEC098F1BDC097F1C8
:1032F000000189DE0D0EA4A8FED70F011C6F0A0E77
:10330000A4A8FED71C6F000119EF24F07453D8A4B1
:103310007BD06F0E9EA8FED7AD6E2C0E9EA8FED75A
:10332000AD6E0A0EE96E92C098F191C097F1FADD88
:103330002C0E9EA8FED7AD6E0A0EE96E94C098F1D1
:1033400093C097F1EFDD2C0E9EA8FED7AD6E0A0E4E
:10335000E96E96C098F195C097F1E4DD2C0E9EA819
:10336000FED7AD6E0A0EE96E98C098F197C097F13E
:10337000D9DD2C0E9EA8FED7AD6E0A0EE96E9AC05E
:1033800098F199C097F1CEDD2C0E9EA8FED7AD6EB8
:103390000A0EE96E9CC098F19BC097F1C3DD2C0E1C
:1033A0009EA8FED7AD6E0A0EE96EA4C098F1A3C028
:1033B00097F1B8DD2C0E9EA8FED7AD6E0A0EE96E11
:1033C000A0C098F19FC097F1ADDD2C0E9EA8FED74E
:1033D000AD6E0A0EE96EA2C098F1A1C097F1A2DD10
:1033E0002C0E9EA8FED7AD6E0A0EE96EA6C098F10F
:1033F000A5C097F197DD0D0E9EA8FED7AD6E0A0E03
:103400009EA8FED7AD6E8FD06F0EA4A8FED70F0179
:103410001C6F2C0EA4A8FED71C6F0A0EE96E92C07A
:1034200098F191C097F10001EEDD2C0EA4A8FED713
:103430000F011C6F0A0EE96E94C098F193C097F1CA
:103440000001E1DD2C0EA4A8FED70F011C6F0A0EAF
:10345000E96E96C098F195C097F10001D4DD2C0E6D
:10346000A4A8FED70F011C6F0A0EE96E98C098F150
:1034700097C097F10001C7DD2C0EA4A8FED70F015D
:103480001C6F0A0EE96E9AC098F199C097F100017D
:10349000BADD2C0EA4A8FED70F011C6F0A0EE96E30
:1034A0009CC098F19BC097F10001ADDD2C0EA4A843
:1034B000FED70F011C6F0A0EE96EA4C098F1A3C0DD
:1034C00097F10001A0DD2C0EA4A8FED70F011C6F00
:1034D0000A0EE96EA0C098F19FC097F1000193DD3C
:1034E0002C0EA4A8FED70F011C6F0A0EE96EA2C015
:1034F00098F1A1C097F1000186DD2C0EA4A8FED79B
:103500000F011C6F0A0EE96EA6C098F1A5C097F1D5
:10351000000179DD0D0EA4A8FED70F011C6F0A0E65
:10352000A4A8FED71C6F000119EF24F00101D151AE
:10353000400805E2410ED15D0A0FD26F03D0300E74
:10354000D15DD26FD2C101F0000112000150A1C1C2
:10355000A3F1640E0101A46F000134EC0AF000C075
:10356000A1F10150300E08E10101A2A30ED0A2B7D3
:103570000CD0A2B9200E04D00101A297A299A28179
:10358000012601509EA8FED7AD6EA1C1A3F10A0E7F
:10359000A46F000134EC0AF000C0A1F10150300E1C
:1035A00008E10101A2B70BD0A2A109D0A2B9200E57
:1035B0000001012601509EA8FED7AD6E0101300E1C
:1035C000A127A1519EA8FED7AD6E000112000150A7
:1035D0009BC1A3F1640E0101A46F000134EC0AF059
:1035E00000C09BF10150300E08E101019CA310D0F6
:1035F0009CB70ED09CB9200E04D001019C979C99D9
:103600009C8101260150A4A8FED70F011C6F010167
:103610009BC1A3F10A0EA46F000134EC0AF000C0B4
:103620009BF10150300E08E101019CB70CD09CA128
:103630000AD09CB9200E000101260150A4A8FED793
:103640000F011C6F0101300E9B279B51A4A8FED7D0
:103650000F011C6F000112000101976B986B996BB1
:1036600025C0D1F1000162DF01C097F10101973956
:103670009B6FF00E9B1726C0D1F1000157DF015060
:1036800001019B25976F28C0D1F100014FDF01C0D8
:1036900098F1010198399B6FF00E9B1729C0D1F169
:1036A000000144DF015001019B25986F2BC0D1F12F
:1036B00000013CDF01C099F1010199399B6FF00EC7
:1036C0009B172CC0D1F1000131DF015001019B2576
:1036D000996FC580C5B0FED797C1CEF1000125EC2A
:1036E00016F098C1CEF125EC16F0C582C5B2FED712
:1036F000010E010197259B6FCE6F000125EC16F09E
:10370000745305E1720E9EA8FED7AD6E06D0720E00
:10371000A4A8FED70F011C6F0001010199510108F7
:1037200024E2010E006E000133EC16F001C09AF1A4
:1037300074530CE12C0E9EA8FED7AD6E9AC1A1F178
:10374000030E0101A26F000101DF0CD02C0EA4A812
:10375000FED70F011C6F9AC19BF1030E01019C6FF4
:10376000000135DF01019907D9D7006A000133EC68
:1037700016F001C09AF1745314E12C0E9EA8FED7E6
:10378000AD6E9AC1A1F1030E0101A26F0001DEDE50
:103790000D0E9EA8FED7AD6E0A0E9EA8FED7AD6E8A
:1037A00016D02C0EA4A8FED70F011C6F9AC19BF156
:1037B000030E01019C6F00010ADF0D0EA4A8FED7C5
:1037C0000F011C6F0A0EA4A8FED71C6F0001C58450
:1037D000C5B4FED719EF24F0EACF9FF1E9CF9EF1EF
:1037E00001019839F0099A6F9A27E20F9B6F320F07
:1037F0009D6F98510F0B9B279B279D27E90F9C6F6F
:103800009C279C2797390F0B9C279D279C379D371A
:103810009D1F9D3797510F0B9D279A37070E996F64
:103820000A0E9C079D27FDE39B079C27FDE39A0753
:103830009B27FDE399079A27FDE3010EEA6E990E97
:10384000E96E070E9E159E9DE9269D0EE95CD8B493
:103850009E8DEF50006E08E19EBD06D09EB90CD043
:103860009EB702D0200E03D09E879E99300E002670
:1038700000509EA8FED7AD6EEE509EADE6D700017B
:10388000E2EF23F0EACF9FF1E9CF9EF101019839F1
:10389000F0099A6F9A27E20F9B6F320F9D6F985134
:1038A0000F0B9B279B279D27E90F9C6F9C279C272D
:1038B00097390F0B9C279D279C379D379D1F9D3760
:1038C00097510F0B9D279A37070E996F0A0E9C0789
:1038D0009D27FDE39B079C27FDE39A079B27FDE3BC
:1038E00099079A27FDE3010EEA6E990EE96E070E1D
:1038F0009E159E9DE9269D0EE95CD8B49E8DEF50E5
:10390000006E08E19EBD06D09EB90ED09EB702D0D3
:10391000200E03D09E879E99300E00260050A4A84A
:10392000FED70F011C6F0101EE509EADE4D70001E0
:10393000FDEF23F0745323E1740E9EA8FED7AD6E05
:103940002C0E9EA8FED7AD6E83C0A1F1030E01011F
:10395000A26F0001FBDD2C0E9EA8FED7AD6E84C0C9
:10396000A1F1030E0101A26F0001F0DD0D0E9EA872
:10397000FED7AD6E0A0E9EA8FED7AD6E25D0740E92
:10398000A4A8FED70F011C6F2C0EA4A8FED71C6F95
:1039900083C09BF1030E01019C6F000118DE2C0E09
:1039A000A4A8FED70F011C6F84C09BF1030E010178
:1039B0009C6F00010CDE0D0EA4A8FED70F011C6F3A
:1039C0000A0EA4A8FED71C6F000119EF24F0020E06
:1039D00001019C6F9D6B036A9C51230FE96E000EE1
:1039E0000320EA6EEF502C082EE0036A9C51230F4F
:1039F000E96E000E0320EA6EEF500A0824E0036A25
:103A00009C51230FE96E000E0320EA6EEF500D0863
:103A10001AE0036A9D51970F016E010E032203C045
:103A20009FF1036A9C51230FE96E000E0320EA6E9A
:103A3000EFCFA0F19FC1EAFF01C0E9FFA0C1EFFFF6
:103A40009C2B9D2BC8D7036A9D51970FE96E010EE1
:103A50000320EA6EEF6A010EA06F970E9F6F0001C0
:103A60001FEC0DF001C087F0036A01019C51230F88
:103A7000E96E000E0320EA6EEF500A080AE0036ABE
:103A80009C51230FE96E000E0320EA6EEF500D08E3
:103A900012E10001745307E1820EF66E120EF76E0A
:103AA0000EEC0AF006D0980EF66E120EF76EA9EC28
:103AB0000AF06DD001019C2B9D6B036A9C51230F72
:103AC000E96E000E0320EA6EEF500A0824E0036A54
:103AD0009C51230FE96E000E0320EA6EEF500D0893
:103AE0001AE0036A9D51970F016E010E032203C075
:103AF0009FF1036A9C51230FE96E000E0320EA6ECA
:103B0000EFCFA0F19FC1EAFF01C0E9FFA0C1EFFF25
:103B10009C2B9D2BD2D7036A9D51970FE96E010E06
:103B20000320EA6EEF6A010EA06F970E9F6F0001EF
:103B30001FEC0DF001C086F0888374530DE1760E02
:103B40009EA8FED7AD6E0D0E9EA8FED7AD6E0A0ED6
:103B50009EA8FED7AD6E0ED0760EA4A8FED70F019C
:103B60001C6F0D0EA4A8FED71C6F0A0EA4A8FED7CA
:103B70001C6F000188B1FED7F20ED76E270ED66EED
:103B8000880ED56E856B229CF2989D90F28A19EF73
:103B900024F00101976B25C0D1F10001C7DC01C001
:103BA00097F101019739986FF00E981726C0D1F15F
:103BB0000001BCDC015001019825976FC580C5B09C
:103BC000FED797C1CEF1000125EC16F028C0D1F147
:103BD000ADDC01C097F101019739986FF00E98178D
:103BE00029C0D1F10001A2DC015001019825976F95
:103BF00097C1CEF1000125EC16F02BC0D1F196DC77
:103C000001C097F101019739986FF00E98172CC0F9
:103C1000D1F100018BDC015001019825976F97C10C
:103C2000CEF1000125EC16F0C584C5B4FED774535F
:103C30000DE1770E9EA8FED7AD6E0D0E9EA8FED7A5
:103C4000AD6E0A0E9EA8FED7AD6E0DD0770EA4A85D
:103C5000FED70F011C6F0D0EA4A8FED71C6F0A0E15
:103C6000A4A8FED71C6F000119EF24F07453D8A448
:103C700095D1A9C097F10101986BAAC099F19A6BEF
:103C80009A6BABC09BF101019C6BACC09DF19E6B2C
:103C90009E6B780E9EA8FED7AD6E97519EA8FED75C
:103CA000AD6E99519EA8FED7AD6E9B519EA8FED7D2
:103CB000AD6E9D519EA8FED7AD6EADC097F10101CE
:103CC000986BAEC099F19A6B9A6BAFC09BF10101F2
:103CD0009C6BB0C09DF19E6B9E6B97519EA8FED7CA
:103CE000AD6E99519EA8FED7AD6E9B519EA8FED792
:103CF000AD6E9D519EA8FED7AD6EB1C097F101018A
:103D0000986BB2C099F19A6B9A6BB3C09BF10101A9
:103D10009C6BB4C09DF19E6B9E6B97519EA8FED785
:103D2000AD6E99519EA8FED7AD6E9B519EA8FED751
:103D3000AD6E9D519EA8FED7AD6EBBC097F101013F
:103D4000986BBCC099F19A6B9A6BB7C09BF101015B
:103D50009C6BB8C09DF19E6B9E6B97519EA8FED741
:103D6000AD6E99519EA8FED7AD6E9B519EA8FED711
:103D7000AD6E9D519EA8FED7AD6EB9C097F1010101
:103D8000986BBAC099F19A6B9A6BBDC09BF1010117
:103D90009C6BBEC09DF19E6B9E6B97519EA8FED7FB
:103DA000AD6E99519EA8FED7AD6E9B519EA8FED7D1
:103DB000AD6E9D519EA8FED7AD6E91C097F10101E9
:103DC000986B92C099F19A6B9A6B93C09BF1010129
:103DD0009C6B94C09DF19E6B9E6B97519EA8FED7E5
:103DE000AD6E99519EA8FED7AD6E9B519EA8FED791
:103DF000AD6E9D519EA8FED7AD6E95C097F10101A5
:103E0000986B96C099F19A6B9A6B97C09BF10101E0
:103E10009C6B98C09DF19E6B9E6B97519EA8FED7A0
:103E2000AD6E99519EA8FED7AD6E9B519EA8FED750
:103E3000AD6E9D519EA8FED7AD6E99C097F1010160
:103E4000986B9AC099F19A6B9A6B9BC09BF1010198
:103E50009C6B9CC09DF19E6B9E6B97519EA8FED75C
:103E6000AD6E99519EA8FED7AD6E9B519EA8FED710
:103E7000AD6E9D519EA8FED7AD6EA3C097F1010116
:103E8000986BA4C099F19A6B9A6B9FC09BF101014A
:103E90009C6BA0C09DF19E6B9E6B97519EA8FED718
:103EA000AD6E99519EA8FED7AD6E9B519EA8FED7D0
:103EB000AD6E9D519EA8FED7AD6EA1C097F10101D8
:103EC000986BA2C099F19A6B9A6BA5C09BF1010106
:103ED0009C6BA6C09DF19E6B9E6B97519EA8FED7D2
:103EE000AD6E99519EA8FED7AD6E9B519EA8FED790
:103EF000AD6E9D519EA8FED7AD6E8AC097F10101AF
:103F0000986B996B9A6B8BC09CF18CC09DF18DC0A6
:103F10009EF19F6B9D6B9E6B9F6B8CC0A1F18DC0C2
:103F2000A2F1A36BA46BA26BA36BA46B8DC0A6F1D3
:103F3000A76BA86BA96BA76BA86BA96B1A509EA85F
:103F4000FED7AD6E1B509EA8FED7AD6E01519EA848
:103F5000FED7AD6E000183519EA8FED7AD6E845191
:103F60009EA8FED7AD6E010197519EA8FED7AD6EFB
:103F70009C519EA8FED7AD6EA1519EA8FED7AD6EF6
:103F8000A6519EA8FED7AD6E0D0E9EA8FED7AD6EB3
:103F90000A0E9EA8FED7AD6EEAD10001A9C097F126
:103FA0000101986BAAC099F19A6B9A6BABC09BF117
:103FB00001019C6BACC09DF19E6B9E6B780EA4A81A
:103FC000FED70F011C6F01019751A4A8FED70F0166
:103FD0001C6F01019951A4A8FED70F011C6F0101AC
:103FE0009B51A4A8FED70F011C6F01019D51A4A8ED
:103FF000FED70F011C6FADC097F10101986BAEC0E9
:1040000099F19A6B9A6BAFC09BF101019C6BB0C0A8
:104010009DF19E6B9E6B9751A4A8FED70F011C6F5C
:1040200001019951A4A8FED70F011C6F01019B51FA
:10403000A4A8FED70F011C6F01019D51A4A8FED7B3
:104040000F011C6FB1C097F10101986BB2C099F1DB
:104050009A6B9A6BB3C09BF101019C6BB4C09DF14C
:104060009E6B9E6B9751A4A8FED70F011C6F010198
:104070009951A4A8FED70F011C6F01019B51A4A860
:10408000FED70F011C6F01019D51A4A8FED70F019F
:104090001C6FBBC097F10101986BBCC099F19A6B82
:1040A0009A6BB7C09BF101019C6BB8C09DF19E6BF0
:1040B0009E6B9751A4A8FED70F011C6F0101995167
:1040C000A4A8FED70F011C6F01019B51A4A8FED725
:1040D0000F011C6F01019D51A4A8FED70F011C6F99
:1040E000B9C097F10101986BBAC099F19A6B9A6BBC
:1040F000BDC09BF101019C6BBEC09DF19E6B9E6B90
:104100009751A4A8FED70F011C6F01019951A4A8D3
:10411000FED70F011C6F01019B51A4A8FED70F0110
:104120001C6F01019D51A4A8FED70F011C6F91C007
:1041300097F10101986B92C099F19A6B9A6B93C0B9
:104140009BF101019C6B94C09DF19E6B9E6B9751FE
:10415000A4A8FED70F011C6F01019951A4A8FED796
:104160000F011C6F01019B51A4A8FED70F011C6F0A
:1041700001019D51A4A8FED70F011C6F95C097F1B6
:104180000101986B96C099F19A6B9A6B97C09BF15D
:1041900001019C6B98C09DF19E6B9E6B9751A4A8EA
:1041A000FED70F011C6F01019951A4A8FED70F0182
:1041B0001C6F01019B51A4A8FED70F011C6F0101C8
:1041C0009D51A4A8FED70F011C6F99C097F1010162
:1041D000986B9AC099F19A6B9A6B9BC09BF1010105
:1041E0009C6B9CC09DF19E6B9E6B9751A4A8FED7C3
:1041F0000F011C6F01019951A4A8FED70F011C6F7C
:1042000001019B51A4A8FED70F011C6F01019D5114
:10421000A4A8FED70F011C6FA3C097F10101986BF2
:10422000A4C099F19A6B9A6B9FC09BF101019C6BA2
:10423000A0C09DF19E6B9E6B9751A4A8FED70F0165
:104240001C6F01019951A4A8FED70F011C6F010139
:104250009B51A4A8FED70F011C6F01019D51A4A87A
:10426000FED70F011C6FA1C097F10101986BA2C08E
:1042700099F19A6B9A6BA5C09BF101019C6BA6C04A
:104280009DF19E6B9E6B9751A4A8FED70F011C6FEA
:1042900001019951A4A8FED70F011C6F01019B5188
:1042A000A4A8FED70F011C6F01019D51A4A8FED741
:1042B0000F011C6F8AC097F10101986B996B9A6B83
:1042C0008BC09CF18CC09DF18DC09EF19F6B9D6B4E
:1042D0009E6B9F6B8CC0A1F18DC0A2F1A36BA46BF0
:1042E000A26BA36BA46B8DC0A6F1A76BA86BA96B87
:1042F000A76BA86BA96B1A50A4A8FED70F011C6F5F
:104300001B50A4A8FED71C6F01010151A4A8FED721
:104310000F011C6F00018351A4A8FED70F011C6F71
:1043200000018451A4A8FED70F011C6F0101975111
:10433000A4A8FED70F011C6F01019C51A4A8FED7B1
:104340000F011C6F0101A151A4A8FED70F011C6F22
:104350000101A651A4A8FED70F011C6F0D0EA4A841
:10436000FED71C6F0A0EA4A8FED71C6F0101000126
:1043700019EF24F00101976B986BCB6B25C0D1F13D
:10438000000196EC1AF001C097F101019739CD6F49
:10439000F00ECD1726C0D1F1000196EC1AF00150B5
:1043A0000101CD25976F28C0D1F1000196EC1AF0DC
:1043B00001C098F101019839CD6FF00ECD1729C0D9
:1043C000D1F1000196EC1AF001500101CD25986F52
:1043D0002BC0D1F1000196EC1AF001C0CBF1010124
:1043E000CB39CD6FF00ECD172CC0D1F1000196EC7A
:1043F0001AF001500101CD25CB6FCC6BCB51CC5DB8
:1044000052E2036ACC51990F016E010E032201C0E2
:10441000CDF103C0CEF10B0ECC25CC25CC25036A03
:10442000230FE96E000E0320EA6EEFCFCFF1CFC16C
:10443000D1F1000196EC1AF0CEC1EAFFCDC1E9FF3F
:1044400001C0EFFF036A0101CC51990F016E010E0B
:10445000032201C0CDF103C0CEF1036ACC51990F04
:10446000E96E010E0320EA6EEF38CF6FF00ECF1722
:104470000C0ECC25CC25CC25036A230FE96E000E4B
:104480000320EA6EEFCFD0F1D0C1D1F1000196EC5C
:104490001AF001500101CF25CEC1EAFFCDC1E9FFDD
:1044A000EF6ECC2BABD7C580C5B0FED797C1CEF190
:1044B000000125EC16F098C1CEF125EC16F00101B3
:1044C000CC6BCB51CC5D11E2036ACC51990FE96EF4
:1044D000010E0320EA6EEFCFCDF1CDC1CEF1000188
:1044E00025EC16F00101CC2BECD7C584C5B4FED762
:1044F000000174530DE1790E9EA8FED7AD6E0D0E2E
:104500009EA8FED7AD6E0A0E9EA8FED7AD6E0DD04A
:10451000790EA4A8FED70F011C6F0D0EA4A8FED71C
:104520001C6F0A0EA4A8FED71C6F000119EF24F01F
:1045300074530DE17A0E9EA8FED7AD6E0D0E9EA8A7
:10454000FED7AD6E0A0E9EA8FED7AD6E0ED07A0EC7
:10455000A4A8FED70F011C6F0D0EA4A8FED71C6FD8
:104560000A0EA4A8FED71C6F0001FF0019EF24F06B
:10457000745307E1A00EF66E100EF76E0EEC0AF003
:1045800006D0B60EF66E100EF76EA9EC0AF019EF13
:1045900024F024502C0809E024500A0806E0245096
:1045A0000D0803E0736B229844D12350410A3BE08D
:1045B000030A3CE0010A3DE0070A3EE0010A3FE051
:1045C000030A40E0010AD8B47DD00F0AD8B49CD0C9
:1045D000010AD8B49CD0020AD8B4D0D0010AD8B409
:1045E000D0D0060AD8B4D0D0020AD8B4D0D0010AAC
:1045F000D8B4D0D01D0AD8B4D0D0010AD8B4D0D005
:10460000070AD8B405D1020AD8B405D1010AD8B432
:1046100005D10F0AD8B405D1010AD8B405D1030ACF
:10462000D8B404D105D1F7EF0DF003D15FEF0FF04F
:1046300000D1ABEF0FF0FDD031EF10F0FAD0F2EF78
:1046400011F0F7D074531DE1660E9EA8FED7AD6E33
:104650002C0E9EA8FED7AD6E410EE96E8DC0A4F162
:104660008CC0A3F18BC0A2F18AC0A1F189EC12F039
:104670000D0E9EA8FED7AD6E0A0E9EA8FED7AD6E9B
:1046800020D0660EA4A8FED70F011C6F2C0EA4A884
:10469000FED71C6F410EE96E8DC09AF18CC099F166
:1046A0008BC098F18AC097F1000110EF13F00D0E46
:1046B000A4A8FED70F011C6F0A0EA4A8FED71C6F7A
:1046C0000001B7D08D6B8C6B8B6B8A6B74530DE1D3
:1046D000670E9EA8FED7AD6E0D0E9EA8FED7AD6EDE
:1046E0000A0E9EA8FED7AD6E0ED0670EA4A8FED708
:1046F0000F011C6F0D0EA4A8FED71C6F0A0EA4A8F4
:10470000FED71C6F000195D00BEF14F092D07453BC
:1047100019E1690E9EA8FED7AD6E2C0E9EA8FED79D
:10472000AD6E01C19AF1570E01019B6F000175EC4E
:1047300014F00D0E9EA8FED7AD6E0A0E9EA8FED7F1
:10474000AD6E1BD0690EA4A8FED70F011C6F2C0EF6
:10475000A4A8FED71C6F01C19AF1570E01019B6FEF
:10476000000198EC14F00D0EA4A8FED70F011C6FE9
:104770000A0EA4A8FED71C6F00015BD0BEEF14F098
:1047800058D041EF16F055D0E4EF16F052D076EF46
:1047900018F04FD086EF19F04CD02CEF1BF049D019
:1047A000745319E1730E9EA8FED7AD6E2C0E9EA811
:1047B000FED7AD6E010EE96E00C198F1FFC097F112
:1047C000ECEF1BF00D0E9EA8FED7AD6E0A0E9EA854
:1047D000FED7AD6E1CD0730EA4A8FED70F011C6FC0
:1047E0002C0EA4A8FED71C6F010EE96E00C198F133
:1047F000FFC097F1000142EF1CF00D0EA4A8FED7F8
:104800000F011C6F0A0EA4A8FED71C6F000111D067
:104810009AEF1CF00ED0E7EF1CF00BD0C9EF1DF0A3
:1048200008D036EF1EF005D0A5D503D081D601D033
:104830009FD6736B229809EF27F08AC000F08BC0D7
:1048400001F08CC002F08DC003F01200F6DF03C04F
:10485000A8F102C0A7F101C0A6F100C0A5F1EDDFEB
:1048600003C0ACF102C0ABF101C0AAF100C0A9F1D4
:104870000101A551A95FA651AA5BA751AB5BA85145
:10488000AC5BAC51A45D18E3D8B402D00001E7D70B
:10489000AB51A35D11E3D8B402D00001E0D7AA5117
:1048A000A25D0AE3D8B402D00001D9D7A151A95D15
:1048B000D8B002D00001D3D7000112000101AD6BC6
:1048C000AE6B010EAF6FDA6AD96AB26FA50EB16F27
:1048D000010EEA6EA90EE96EB2C1E2FFB1C1E1FFBD
:1048E000AFC1B0F1D890E550EE02F350AD23F450D3
:1048F000AE23B02FF7D7ADC1DEFFAEC1ADF1AE6BC9
:10490000D8B0AE2BB12BD8B4B22BAF2BAF5105081A
:10491000DFE100011200A4C1A8F1A3C1A7F1A2C167
:10492000A6F1A1C1A5F10101AC6BAB6BAA6B460E60
:10493000A96F0001C3DF03C0A8F102C0A7F101C045
:10494000A6F100C0A5F1D89203C0B0F102C0AFF14A
:1049500001C0AEF100C0ADF10101B46BB36BB26B3D
:10496000140EB16F00013FEC12F003C0A8F102C0B9
:10497000A7F101C0A6F100C0A5F11E0E010100249F
:10498000006E000E0120016E000E0220026E000E6D
:104990000320036E00C001F00001EEEF25F08E0E43
:1049A000006EA2C101F0A1C102F0036A015209E147
:1049B00002C001F0026A080E005E015202E1006AC4
:1049C00008D0D89001BE04D0023601360006F9D7CF
:1049D000019E12EF26F00101A151D8B4A5D0AD6F10
:1049E000A551D8B4A1D0AD5F05E37F0EAD27D8B0F7
:1049F0009BD006D0810EAD5FD8A096D0D8B494D00D
:104A0000ADC100F0016A026A036AAC6BA2C1ABF1EE
:104A1000AB8FA3C1AAF1A4C1A9F1190EAD6FA85122
:104A2000A95F0DE2010EAA5F0AE2AB5F08E2AC5F8C
:104A300006E2AC2BAB2BAA2BA851A92728D0A75153
:104A4000AA5F12E2010EAB5F0FE2AC5F0DE2AC2B8E
:104A5000AB2BA751AA27A851A92719E3AA2B17E125
:104A6000AB2B15E1AC2B13D0A6518009AB5F0EE246
:104A7000010EAC5F0BE2AC2BA6518009AB27A7510E
:104A8000AA27E9E3AB2BE7E1AC2BE5D70380AD2FF9
:104A900001D00BD0D890A937AA37AB37AC37D89014
:104AA000033602360136AE37BAD7AEA106D0D8905B
:104AB000013202320332AE3302D0000635E0AEBF1F
:104AC0001ED0D890A937AA37AB37AC37A851A95F09
:104AD00007E2010EAA5F04E2AB5F02E2AC5F1AE3F9
:104AE000A751AA5F05E2010EAB5F02E2AC5F12E3E1
:104AF000A6518009AB5F03E2010EAC5F0BE3032A12
:104B000009E1022A07E1012A05E1002A0DE001324C
:104B100002320332A2C1ADF1A651AD1BADAF02D03E
:104B2000018E06D0019E04D0006A016A026A036AFF
:104B3000000125EF26F00101A151B608A16F036A1B
:104B4000A2C1A5F1A28FD890A233A333A43303321C
:104B5000023201320032A12FF6D7A5AF0BD0001ED2
:104B6000011E021E031E002AD8B4012AD8B4022A4C
:104B7000D8B4032A00012EEF26F0A2C11AF0A3C177
:104B80001BF01ABE06D01A50140803E2140E1A6E57
:104B900006D01A50800A6B0802E3EC0E1A6E1BBE98
:104BA00006D01B50140803E2140E1B6E06D01B50D7
:104BB000800A6B0802E3EC0E1B6E196AF2BE198EB6
:104BC000F29EBFEC05F019BEF28E12000101A46B3B
:104BD000A36BA26B9BC1A1F100019DD601C09CF10A
:104BE000AE0EF66E130EF76E0B0E0101A16F0001F3
:104BF0001FEC0AF09CC1A1F11B0E0101A26F000184
:104C0000A6EC1AF0BB0EF66E130EF76E040E010141
:104C1000A16F00011FEC0AF00101A26B9CC1A1F180
:104C20000001BDD6630E0101A46F140EA36F1D0E0B
:104C3000A26F870EA16F03C0A8F102C0A7F101C047
:104C4000A6F100C0A5F10001C6D603C0A4F102C0C0
:104C5000A3F101C0A2F100C0A1F16DD703C0A4F17E
:104C600002C0A3F101C0A2F100C0A1F103C0A8F1EC
:104C700002C0A7F101C0A6F100C0A5F10101AC6B13
:104C8000AB6B030EAA6FE80EA96F000117DE03C01D
:104C9000A0F102C09FF101C09EF100C09DF1C00EC5
:104CA000F66E130EF76E050E0101A16F00011FECE9
:104CB0000AF0410EE96EA0C1A4F19FC1A3F19EC10B
:104CC000A2F19DC1A1F189EC12F0200E9EA8FED7A1
:104CD000AD6E0D0E9EA8FED7AD6E0A0E9EA8FED735
:104CE000AD6E01019B1DA16FA12B9BC1A2F1A1C1C2
:104CF000A3F1000142DFA0C1A4F19FC1A3F19EC1B5
:104D0000A2F19DC1A1F1A2DD0101A26BA36B000183
:104D100034DF59EF27F0F86AD09E078EEA6AE96A15
:104D2000720ED36E9B6A646A6586440EAF6E000E87
:104D3000D46EA60EAC6E900EAB6E0F012087440EA3
:104D40001E6F000E1F6FA60E216F900E226F9486AD
:104D50009488270EC86E290EC66EC78EC79CC86879
:104D6000280EC66E1A6A1B6A1C6A1D6A1E6A1F6AB2
:104D7000206A216A228022822284228622980001CF
:104D8000736B746B229A836B846B856B229C866B2E
:104D9000876B229E889188938895896B88978D6B05
:104DA0008C6B8B6B8A6B8E6B8F6B906BF16BF26B7A
:104DB00088990101006B0001FF6B100E0101026F69
:104DC000046B036B056B076B066B226B000E0F0108
:104DD000236F246F256FC196C198C19A0101886B1A
:104DE0000F012E6B2F6B546B0101236B246B0001A1
:104DF00038EF0BF012EF0DF00101926B916B906B9D
:104E0000360E8F6F22A805D022A403D00001C9EF6F
:104E100022F0000112DD03C096F102C095F101C03D
:104E200094F100C093F10101A46BA36B0F0EA26F6C
:104E3000A00EA16F00010ADD00DD03C09AF102C0DF
:104E400099F101C098F100C097F101019351975F6A
:104E50009451985B9551995B96519A5BCC0EF66E86
:104E6000130EF76E0B0EA16F00011FEC0AF0410E3E
:104E7000E96E9AC1A4F199C1A3F198C1A2F197C1B9
:104E8000A1F189EC12F0200E9EA8FED7AD6E0D0E9A
:104E90009EA8FED7AD6E0A0E9EA8FED7AD6E01018C
:104EA0009A6B996B986B0A0E976F050E9B6F0001BA
:104EB0008DD6C3DC03C096F102C095F101C094F118
:104EC00000C093F10101A46BA36B3A0EA26F980E80
:104ED000A16F0001BBDCB1DC03C09AF102C099F103
:104EE00001C098F100C097F101019351975F94516F
:104EF000985B9551995B96519A5BDE0EF66E130E98
:104F0000F76E0C0EA16F00011FEC0AF0410EE96E66
:104F10009AC1A4F199C1A3F198C1A2F197C1A1F1DD
:104F200089EC12F0ED0EF66E130EF76E040E010111
:0E4F3000A16F00011FEC0AF0010164D703001D
:020000040030CA
:0E00000015C97E7C018991000FC00FE00F40F2
:00000001FF
;PIC18F66K22
;CRC=6DBD  CREATED="22-nov.-12 14:53"
